:020000040800F2
:10000000680E002035020008B92F0008912700086B
:10001000F12D0008C91E0008814C000800000000F6
:100020000000000000000000000000002142000865
:10003000D520000800000000133D00087D440008A2
:100040004F0200084F0200084F0200084F0200084C
:100050004F0200084F0200084F0200084F0200083C
:100060004F0200084F0200084F0200084F0200082C
:100070004F0200084F0200084F0200084F0200081C
:100080004F0200084F0200084F0200084F0200080C
:100090004F0200084F0200084F0200084F020008FC
:1000A0004F0200084F0200084F0200084F020008EC
:1000B000E1440008094500083D4500084F020008DA
:1000C0004F0200084F0200084F0200084F020008CC
:1000D0004F02000841480008E14800084F020008AC
:1000E0004F0200084F0200084F02000800F002F81B
:1000F00000F090F80AA090E8000C82448344AAF132
:100100000107DA4501D100F085F8AFF2090EBAE82F
:100110000F0013F0010F18BFFB1A43F0010318473B
:100120004C6000006C600000103A24BF78C878C1B1
:10013000FAD8520724BF30C830C144BF04680C60ED
:10014000704700000023002400250026103A28BF35
:1001500078C1FBD8520728BF30C148BF0B60704739
:100160006E2900F08D81702900F0CF82662905F09C
:10017000D882652905F0D582672905F0D2826129E8
:1001800005F0D18203681B0A28BF41F0800169296C
:1001900000F03A81642900F03781752900F034813C
:1001A0006F2900F05C82782900F09B82E92900F039
:1001B000F781E42900F0F481F52900F0F181EF29BD
:1001C00000F05982F82900F09A820368DB0928BF01
:1001D00041F08001632900F09D87732900F0A28718
:1001E000E32900F0AD87F32900F0B28700207047C3
:1001F0001FB501F003F804000020002104F0F6FF11
:10020000401C60600020002104F0DAFFE0601FBDA8
:1002100010B510BD00F0C4FF1146FFF7E9FF04F070
:1002200073FD01F0A1F803B4FFF7F2FF03BC01F086
:10023000A5F800000948804709480047FEE7FEE7A7
:10024000FEE7FEE7FEE7FEE7FEE7FEE7FEE7FEE786
:1002500004480549054A064B7047000081440008E0
:10026000ED00000868080020680E0020680A0020E1
:10027000680A00201CB50C46064B7B44694600907A
:10028000204600F016F904460020694600F024F9E3
:1002900020461CBD5B02000030B505460B462A46D1
:1002A00013F8014B12F8010B08B1A042F8D01CB1B1
:1002B000002802D06D1CF1E7284630BD4FF0013C0C
:1002C00050F8042B51F8043B9A4221D1A2EB0C03C5
:1002D000934313EACC1317D150F8042B51F8043B85
:1002E0009A4215D1A2EB0C03934313EACC130BD122
:1002F00050F8042B51F8043B9A4209D1A2EB0C03AD
:10030000934313EACC13DBD04FF00000704700BFDB
:10031000D01A01BAB1FA81F101F0180122FA01F004
:10032000CB40C1F12001DBB2C0B2C01A2CFA01F3FC
:10033000D11A914311EAC311E6D170477047704753
:10034000704770B5044685690068C10601D530263E
:1003500000E02026C00707D070BDD4E90121304657
:100360009047206A401C20626D1EF6D570BD70B5A6
:10037000044685690078C00707D170BDD4E9012122
:1003800020209047206A401C20626D1EF6D570BD6B
:1003900009684A0501D540B27047C905FCD500B2CD
:1003A000704709684A0501D5C0B27047C905FCD538
:1003B00080B2704770B50C460546012A05D02878F2
:1003C000800600D5EA69002302E0012305E05B1CFA
:1003D000934202D2E05C0028F9D1A869E618C01A5D
:1003E000A861286A184428622846FFF7AAFF04E09B
:1003F000D5E9012114F8010B9047B442F8D32846FF
:10040000FFF7B5FF70BD00002DE9F041064600245E
:1004100010687529314616A510D0FFF7B9FF0028DE
:1004200002DA404213A507E031688A0701D512A518
:1004300002E0490704D511A5012401E0FFF7B1FF4F
:1004400000210A2206F1240709E0B0FBF2FCB0FB10
:10045000F2F302FB1C00303078541846491C002887
:10046000F3D123462A463046BDE8F04100F061BA98
:10047000000000002D0000002B0000002000000004
:1004800011680268006A530501D508700AE0D305B7
:1004900001D5088006E0130603D5C217C1E90002A2
:1004A00000E008600120704701694A1C0261087879
:1004B000704700B58FB0CDE90131002105910549A4
:1004C0007944CDE903101146684600F029F90FB0D0
:1004D00000BD0000E5FFFFFF0A6802F8010B0A609B
:1004E000704700002DE9FF5F15468A460446DFF895
:1004F000AC80F8440027D8E900103E46CDE9001052
:1005000010E03AF816106A4602A800F025FE411CD9
:1005100007D02178890603D5E269391891420DD8B0
:100520000744761C2078800602D5E069B84205DDD4
:10053000AE42E6DB3AF816000028E2D1A069C01B03
:10054000A0612046FFF7FDFED8E90010CDE90010BC
:10055000002017E03AF818106A4602A800F0FCFDE7
:10056000B0F1FF3F81460BD000250DF1080B05E0EF
:10057000D4E901211BF8050090476D1C4D45F7D3C8
:1005800008F10100B0428046E4DB206A3844206272
:100590002046FFF7ECFEBDE8FF9F00007A5B0000FD
:1005A0002DE9F0418046D21D22F007020025D2E954
:1005B0000002F52915A614D0011E72F1000106DA19
:1005C0000023D0EB030063EB020211A608E0D8F889
:1005D00000108B0701D50FA602E0490701D50EA632
:1005E00001251146002408F1240704E000F05CF91D
:1005F00030323A55641C50EA0102F7D12B4632469C
:1006000021464046BDE8F04100F093B900000000EB
:100610002D0000002B0000002000000030B400215D
:1006200000F1240408E002F00705D208303542EA60
:100630004372DB086554491C52EA0305F3D1046890
:10064000002310A2250707D5A40600D421B1C46950
:1006500001230DA2641EC46130BC00F06AB910B55C
:10066000044621461068FFF79CFE02462046BDE87E
:1006700010400023D2E7D21D22F00701D1E9002368
:10068000CCE700000000000030000000F0B40D4690
:100690000188090502D5214C7C4402E01F4C7C44B2
:1006A0000E34002100F1240608E002F00F071209C1
:1006B000E75D42EA03721B097754491C52EA0307BB
:1006C000F3D102780023120704D5702D06D009B1AA
:1006D000022311342246F0BC00F02BB90123103460
:1006E000F8E770B504460D4621461068FFF759FE3D
:1006F000024629462046BDE870400023C6E7D21DC9
:1007000022F00703D3E90023C0E70368126843F02F
:10071000200303600823C3610023B7E7DC5900000E
:100720002DE9F05F894604464FF0000ADFF874B106
:10073000FB44C0F820A02046E1688847002874D018
:10074000252806D0D4E901219047206A401C206268
:10075000F1E700265F462046E168884720280546E5
:1007600007DB312D05D2781910F8200C08B10643AB
:10077000F1E7B00701D526F00406C4F81CA0002755
:10078000C4F818A02A2D09D0284604F0AFFA38B3CF
:1007900004EB8708303DC8F8185019E059F8041BDD
:1007A000204604EB87029161E1688847012F0546E6
:1007B00018D1E069002820DA26F020061DE0D8F8DC
:1007C000180000EB800005EB40003038C8F8180036
:1007D0002046E1688847054604F088FA0028EED1F3
:1007E000012F0AD02E2D08D12046E16888477F1CB2
:1007F0000546022F46F02006C4DBA069002803DA74
:10080000404246F00106A061F00701D026F0100634
:100810006C2D0BD0682D09D04C2D39D06A2D35D0D8
:10082000742D35D07A2D33D016E038E0E1682F46AC
:1008300020468847B842054609D16C2F26D04FF490
:100840008060E168064320468847054604E06C2F37
:100850001AD04FF4807006430DB3A5F1410019285A
:1008600002D8203546F400664A46294620462660CE
:100870004E46FFF775FC80B101280BD0F61D26F01F
:10088000070000F1080956E74020E4E78020D8E798
:100890000020D6E706F104094DE7284652E7206A12
:1008A000BDE8F09F6C59000030B5B0F10A024FEA84
:1008B000900E71F100034EEA817EB0EB0E0061EB09
:1008C00091014FEA101E4EEA017E10EB0E0041EB43
:1008D00011114FEA102E4EEA016E10EB0E0041EBA3
:1008E00011214FEA104E4EEA014E10EB0E0041EB83
:1008F0001141401841F100014FEAD00040EA417037
:100900004FEAD10110EB80054FEA810444EA90746C
:1009100044EB01046D1944EB0404521BA3414FF056
:10092000000348BF0A3200D530BD401C41F1000130
:1009300030BD2DE9F0470D4699469246044600F138
:1009400024080168880604D5E06921F010012160BF
:1009500000E00120A84201DD471B00E00027A1695B
:100960007A1902EB0900081AA0612078C00602D4A7
:100970002046FFF7E6FC002608E0D4E901211AF83A
:1009800006009047206A401C761C20624E45F4DB2E
:100990002078C0060AD52046FFF7D3FC06E0D4E94C
:1009A000012130209047206A401C2062381EA7F1A8
:1009B0000107F4DC07E0D4E9012118F805009047AD
:1009C000206A401C2062281EA5F10105F3DC2046A8
:1009D000FFF7CDFC2078000602D50220BDE8F087A5
:1009E0000120FBE770472DE9FF4F0C461E464FF0F4
:1009F000FF378BB0D2E90001DDF860800A908A46AB
:100A0000C1F30A5505B93D46002108464FF00000E4
:100A1000BAF1000F00F4400005DA00EB80004FF45B
:100A2000400101EA50004FEA9059B9F1010F00DD91
:100A3000B9460A9850EA4A000ED044F61050A5F282
:100A4000FF3545432F14B8F1000F1ED07542291E03
:100A50001EDDC9F100021CE0B8F1010F4FF00000EB
:100A600001D0302103E0F24305E02154401CB042A4
:100A7000FBDB30460022002121540B99C1F808808D
:100A8000C1E900200FB0BDE8F08FBD1B6D1CDEE793
:100A90004A4600DA694206A800F0F4FB06AB93E888
:100AA000070003AB83E8070050460A9900F06DFC8D
:100AB0008DE80700A0F500501F3800900398002D26
:100AC0000ADD42F21F014A460844002303A90390AD
:100AD000684600F0D6FE09E0A0F500504A461F38EF
:100AE000002303A90390684600F0E0FE8DE80700AC
:100AF0000004000C03D04FF0FF30410800E0104626
:100B0000B8F1000F03D00022009215461EE0751EBA
:100B100005D4FFF7C9FE303262556D1EF9D5B346D4
:100B20000122084302D000227F1C04E020783028F4
:100B300001D100227F1E002A099784D01DE0112DCB
:100B400007DAFFF7B1FE303262556D1C50EA010240
:100B5000F5D1084302D00098C8B10EE00021681E0C
:100B600005E0235C625C63542254401E491C8142B0
:100B7000F7DBAB46A81B401E0990002004F80B00D1
:100B80000B98099AC0F80880C0E9002B7AE7112673
:100B90004FF0000857E72DE9F04F88460446D21D74
:100BA00022F0070191B0D1E90001CDE90A0104F07A
:100BB00089F802460B98C00F01D02D2007E020686D
:100BC000810701D52B2002E0202101EAC000032A81
:100BD000099001D0072A05DB03464146204600F074
:100BE00011FB0BE12078800601D5E06900E00620CA
:100BF000B8F1650F814606D0B8F1660F18D0B8F18C
:100C0000670F70D131E00020B9F1110F009001DBC6
:100C1000112301E009F101030AAA01A90CA8FFF7B9
:100C2000E2FEDDE90C70002609F10105834647E08C
:100C300001204B4600904FF000470AAA01A90CA8DA
:100C4000FFF7D1FEDDE90DB00C995D46002610B925
:100C500009F101000D18B9EB050003D4C0F1FF360E
:100C600009F10105A5EB09002BE0B9F1010F01DA4B
:100C70004FF001090020B9F1110F0090484601DD45
:100C8000112300E003460AAA01A90CA8FFF7ABFE56
:100C9000DDE90C704D4600268346207800070AD413
:100CA000AB4500DA5D4601A8012D04DD411911F8BC
:100CB000011C302907D04F4502DA17F1040F04DA7E
:100CC000012082460FE06D1EEEE7002F02DCED1BD7
:100CD0003E4403E0781CA84200DD7D1CB81B00F1F7
:100CE000010A4FF000472078000703D4AA4501DB32
:100CF0004FF0FF3A0021B7F1004F0DF143088DF896
:100D0000431024D002202B23002F01DA7F422D2311
:100D10000A21021EA0F1010000DC5FB197FBF1FC8B
:100D200097FBF1F201FB1C7C17460CF1300C08F824
:100D300001CDEEE7A8F1010003702188090501D576
:100D4000452100E06521A0F1010800F8011C099887
:100D50000FA9A1EB0807FF1D00B10120411901EB0C
:100D6000EA70A1693844081A401EA0612078C006C4
:100D700002D42046FFF7E5FA099828B1D4E9012109
:100D80009047206A401C20622078C00622D5204669
:100D9000FFF7D7FA1EE0002E04DBB34502DD01A801
:100DA000805D00E03020D4E901219047206A401C9A
:100DB0002062761CAAF101005FEA000A0AD100F065
:100DC0001DFAC0680168405CD4E901219047206A9F
:100DD000401C2062281EA5F10105DCDC07E0D4E9F7
:100DE000012118F8010B9047206A401C2062381E30
:100DF000A7F10107F3DC2046FFF7B9FA032011B091
:100E000041E600002DE9F04F04460D46D21D22F0C8
:100E1000070089B0D0E900974846394603F052FFF1
:100E20000246F80F01D02D2307E02068810701D585
:100E30002B2302E0202101EAC0038DF820300BB102
:100E4000012000E00020032A824601D0072A04DBAB
:100E50002946204600F0D6F93FE12078800601D4EB
:100E60000D2500E0E569C7F30A560D2D49DA00218A
:100E70004FEA175B08464FF00000002F00F44000D7
:100E800007DA00EB80004FF4400100EBD07001EA7C
:100E900060008115012901DD4FF0FF3100224FEA8A
:100EA000850CBCF1180F06D31346ACF118004FF0B7
:100EB0008052C24003E04FF4801323FA0CF30CF18C
:100EC0000C0CBCF1200F04D3ACF1200C09FA0CF08F
:100ED00001E007FA0CF000294FF0004801DD18B9D5
:100EE0000FE00ED140450CD319EB02095F4121B947
:100EF000404502D19F4329EA0209BBEB175F00D0AE
:100F0000761C2088000502D57B48784402E07A48A8
:100F10007844193808AA302302F80A30037C0AF111
:100F20000101002E0AF1020A53546A4602DC4FF016
:100F3000300101E04FF031014FF001088DF8001051
:100F400002D0A6F2FF3603E059EA470100D06B4E0B
:100F5000002D02DC2178090704D54FF002082E216C
:100F60008DF80110C44600210BE0C7F303433F0195
:100F7000C35C491C6D1E02F80830052908F1010800
:100F800001DA002DF1DC00210CE000EB1973491CA3
:100F90001B786D1E082902F808304FEA091908F17C
:100FA000010801DA002DF0DC21688B0602D516E07D
:100FB000A8F10108E04505DD02EB080313F8013C48
:100FC000302BF5D0B8F1000F09DD02EB080313F860
:100FD000013C2E2B03D1090701D4A8F10108002DF3
:100FE00005DD3E2102F808106D1E08F10108407C65
:100FF000002E02F8080008F1010804DA2D207642DC
:1010000002F8080002E02B2002F808000A214FF441
:101010007A70864208F101080BDB96FBF0F330335F
:1010200002F8083096FBF0F308F1010800FB1366A4
:1010300001E0642E0CDB642096FBF0F3303302F801
:10104000083096FBF0F308F1010800FB136601E09D
:101050000A2E06DB96FBF1F0303002F8080008F1AA
:10106000010896FBF1F001FB1060303002F8080037
:10107000A16908F1010808EB050202EB0A00081A51
:10108000A0612078C00602D42046FFF75AF9216AF1
:1010900008AE01EB0A00206204E0D4E9012116F851
:1010A000010B9047BAF1010AF7D22078C00602D5A9
:1010B0002046FFF746F96E4609E016F8010B3E2878
:1010C0000FD0D4E901219047206A401C2062B8F17A
:1010D0000108F2D22046FFF74AF909B00320BDE823
:1010E000F08F206A2844206203E0D4E901213020F7
:1010F00090476D1EEBD3F8E7B651000002FCFFFFEE
:1011000010B5436913B1AFF3008001E0FFF752F966
:10111000012010BD127800F124010A7000224A70EB
:101120000122EDE711684FF0FF32E9E710B543699E
:1011300013B1AFF3008001E0FFF7D4F9012010BD37
:10114000128800F1240182840022C2840122EDE78A
:1011500011684FF0FF32E9E770B516460C460546B8
:1011600000F044F8036893F80101012806D0FF2C31
:101170000FD8185D68B101202C7070BDD3F807013D
:101180003246214603F2071303442846BDE8704067
:1011900018474FF0FF3070BD004870470808002026
:1011A0007546FFF7F9FFAE4605006946534620F045
:1011B0000700854618B020B5FFF74AF8BDE8204083
:1011C0004FF000064FF000074FF000084FF0000B03
:1011D00021F00701AC46ACE8C009ACE8C009ACE8B6
:1011E000C009ACE8C0098D467047000010B500F09A
:1011F00005F8001D10BD00BFF53F00000048704716
:10120000280800202DE9F0411F4604460326016806
:10121000072A01F4006004DB08B116A505E016A555
:1012200003E008B115A500E015A521F0100020602D
:10123000A069C01EA0610FB1401EA0612046FFF74B
:1012400080F84FB1D4E9012138469047206A401C0C
:101250002062C01C206206E0206AFAE7D4E901217E
:1012600015F8010B9047761EF8D22046FFF77FF85D
:10127000BDE8F0814E414E006E616E00494E460061
:10128000696E66002DE9F047814616468AB03548FA
:1012900078440DC88DE80D0032487844801C03ACBA
:1012A0000DC884E80D0041F69B300844372190FBBF
:1012B000F1F290FBF1F5A5F1800501FB12041B3C56
:1012C00002D56442012000E00020DFF898A08046AB
:1012D0000027FA44AAF1BE0A0EE0E0070AD032461F
:1012E000684607EB470101230AEB810100F0DEFAB3
:1012F0008DE8070064107F1C002CEED1194F7F444D
:10130000AE3F19E0E80715D007EB04100DF1180AFD
:1013100090E80E008AE80E00C068F04201D19819EA
:1013200008903246012306A903A800F0BFFA03ABD8
:1013300083E807006D10641C002DE3D14FF001031A
:1013400032466946B8F1000F03A802D000F099FABE
:1013500001E000F0ABFAC9E90001C9F808200AB0C1
:10136000BDE8F087C04E000010B50446AFF3008022
:101370002046BDE81040FEF756BF00000149182086
:10138000ABBEFEE72600020070475FEA400C08BFD4
:1013900091F0000F4FEA8C234FEAC12243EA5151EA
:1013A0004FEA1C5018BF00F5F0404FEA300018BF5C
:1013B00041F000415FEA6C5C00F02980BCF1FF3F26
:1013C00008BF40F080407047130C06BF12044FF076
:1013D000100C4FF0000C130E04BF12020CF1080C9D
:1013E000130F04BF12010CF1040C930F04BF920001
:1013F0000CF1020CD30F04BF52000CF1010C11468A
:101400004FF00002A0F11F00A0EB0C00704711F09C
:10141000004F08BF704731F000413FF4D5AF0B0CCF
:1014200006BF09044FF0100C4FF0000C0B0E04BF68
:1014300009020CF1080C0B0F04BF09010CF1040C9C
:101440008B0F04BF89000CF1020CCB0F04BF4900C5
:101450000CF1010CCCF12003A0EB0C0022FA03F3F9
:1014600002FA0CF241EA030100F10100704720F09A
:101470007F4C80EA030023F07F47ACEB070303F5C2
:101480007C5300F0004003F1FF032DE980494FEA4F
:10149000154B09B44FEA144325EA0B4E24EA0348DE
:1014A0000FF2042606EB132749083E785FEA320262
:1014B00003FB0667C7F5000707FB06F64FEA54373C
:1014C0004FEAD64606F1020607FB066CCCF1005C3B
:1014D0004FEA1C472CEA074C07FB06F40CFB06F509
:1014E00004EB15464FEA961634BF00204FF000403B
:1014F0004FEAD13706FB07FC4FEA1C4C0CFB0BF7FD
:10150000D21B03FB0CF761EB07010CFB0EF7B0EBF2
:10151000074072EB17420CFB08F734BFA2EB0742FF
:10152000B2EB074261EB17414FEA0C444FEA9107D7
:1015300006FB07FC4FEA1C4C0CFB0BF7B0EBC7405B
:1015400072EB573203FB0CF734BFA2EBC742B2EB8E
:10155000C74261EB57310CFB0EF7B0EBC70072EBE3
:1015600057720CFB08F734BFA2EBC702B2EBC702FD
:1015700061EB5771039F4FEA816141EA921104EBDD
:10158000CC044FEAD1374FEA826206FB07FC42EAFD
:1015900090124FEA80604FEA1C4C0CFB0BF7D21BF9
:1015A00003FB0CF761EB07010CFB0EF7B0EB0740F8
:1015B00072EB17420CFB08F734BFA2EB0742B2EB09
:1015C000074261EB17414FEA8C554FEA910704EB54
:1015D0009C2406FB07FC4FEA1C4C0CFB0BF7B0EB02
:1015E000C74072EB573203FB0CF734BFA2EBC74284
:1015F000B2EBC74261EB57310CFB0EF7B0EBC70003
:1016000072EB57720CFB08F734BFA2EBC702B2EBC8
:10161000C70261EB577115EB4C254FEA816141EA36
:1016200092114FEA82624FEAD13742EA901206FBEA
:1016300007FC44F100044FEA80604FEA1C4C0CFBAD
:101640000BF7D21B03FB0CF761EB07010CFB0EF74A
:10165000B0EB074072EB17420CFB08F734BFA2EB6C
:101660000742B2EB074261EB174115EB1C154FEA3D
:10167000813141EA92414FEA823242EA90424FEA96
:1016800080304FEA0C7644F1000448EA03434EEA06
:101690000B484FF0000EB2EB080C71EB030724BFB0
:1016A000624639464EEB0E0E4FF0000B00185241C9
:1016B00049414BEB0B0BB2EB080C71EB03077BF1D1
:1016C000000B24BF624639464EEB0E0E4FF0000B66
:1016D0000018524149414BEB0B0BB2EB080C71EB7C
:1016E00003077BF1000B24BF624639464EEB0E0E1A
:1016F00051EA020718BF46F0010616EB0E7655F1C7
:10170000000254F1000103D5BDE88901BDE800885D
:10171000BDE88901BDE80048B619524141EB01011D
:10172000A3F10103704780807F7E7D7C7B7A79788E
:10173000777676757473727171706F6E6E6D6C6C96
:101740006B6A6A6968686766666564646363626138
:101750006160605F5F5E5E5D5D5C5C5B5B5A5A59B9
:101760005958585757565655555554545353525225
:101770005251515050504F4F4F4E4E4D4D4D4C4C7D
:101780004C4B4B4B4A4A4A494949484848474747C6
:101790004746464645454544444444434343434203
:1017A000424242414141002B9C4630D477002BD02D
:1017B0001CB54FEA370703B44FF010004FF010018B
:1017C000BAF1000F06D0BCF1000FDCBF40F00800FA
:1017D00040F008014FF000000FBCBDE810400BF1D5
:1017E000010BBBF1010F08BF5FEA170722BF12F11F
:1017F000010211F101014FF0004143F1000300F03B
:10180000004043EA00007047F9D35708D0E746EAA2
:10181000064613F1400F4FEA16461FDD13F1200F65
:10182000DFBF16430A46002120335B42BED0C3F11E
:10183000200746EA064602FA07F74FEA164646EA46
:101840000706C3F1200722FA03F201FA07F721FA8B
:1018500003F14FF0000342EA0702A7E746EA020657
:1018600046EA06464FEA164646EA0106BCBF46EA85
:101870000646360C4FF000034FF000024FF0000117
:1018800094E72DE9804C9A46934670B491E838006D
:1018900007C831EA400C48BF34EA430C03D5FFF7D0
:1018A000E6FDFFF780FFF0BCBDE8008C2DE9804C21
:1018B0009A46934670B491E8380007C810F0804FFC
:1018C00008BF13F0804F03D100F005F8FFF76BFF5E
:1018D000F0BCBDE8008C20F07F4780EA030023F0D5
:1018E0007F4C07EB0C03A3F57C5300F00040A3F101
:1018F000FE0392F0000F00F0B38095F0000F00F0AF
:1019000077802DE901494FEA11404FEA144621EA58
:10191000004800FB06FC24EA064708FB06F607FB26
:1019200008F800FB07F718EB06484CEB164C4FEA9B
:10193000124B18EB07484FEA15464CEB174022EACA
:101940000B4E0BFB06FC25EA06470EFB06F607FBD3
:101950000EFE0BFB07F71EEB064E4CEB164C4FF042
:1019600000061EEB074E4CEB174B18EB0B0840F133
:10197000000018EB0E0B58EB000840F100008F1A26
:101980004FF000013CBFC943661B14BFB5EB040C0C
:1019900000213CBFC943F61B4FEA17444EEA8E0EA6
:1019A00027EA04454FEA1C4704FB07622CEA074C70
:1019B00005FB07F70CFB05F604FB0CFC16EB0746D2
:1019C00042EB174216EB0C4642EB1C421BEB0606A1
:1019D00058EB0202414146EA9E0601D5BDE8018965
:1019E000B619524141EB0101A3F10103BDE80189A0
:1019F0004FEA14454FEA114724EA054621EA074C0D
:101A000005FB07F406FB07F70CFB06F105FB0CFCD6
:101A100011EB074144EB17444FEA124711EB0C411D
:101A200044EB1C4422EA074C05FB07F206FB07F7D0
:101A30000CFB06F605FB0CFC16EB074642EB1742C7
:101A400016EB0C4642EB1C456A1854F1000148BFE6
:101A50007047B619524141EB0101A3F101037047F0
:101A600095F0000F37D04FEA11424FEA144721EAB0
:101A7000024624EA074C02FB07F106FB07F70CFBC2
:101A800006F402FB0CFC14EB074441EB17414FEA50
:101A9000154714EB0C4441EB1C4125EA074C02FBB3
:101AA00007F506FB07F70CFB06F602FB0CFC16EB32
:101AB000074645EB174516EB0C4645EB1C42121941
:101AC00051F1000148BF7047B619524141EB010185
:101AD000A3F1010370474FEA14454FEA114724EA86
:101AE000054621EA074C05FB07F106FB07F70CFB4F
:101AF00006F24FF0000605FB0CFC12EB074241EB2F
:101B0000174112EB0C4251EB1C4148BF7047921831
:101B100041EB0101A3F10103704700002DE9F047FB
:101B20000027B946DAE0B9F1050F20D2DFE809F065
:101B3000032034526900781CC7B26AA002F0B4FBDB
:101B400001F043FD04467CB9012001F01BFD044671
:101B500034B96AA002F0A8FB00274FF0010906E0A3
:101B6000204602F079FC02E0204602F075FCAAE073
:101B7000781CC7B266A002F097FB01F026FD044670
:101B800034B902245DA002F08FFB0027A14602E0D9
:101B9000204602F061FC96E060A002F085FB01F0B7
:101BA000B9FD044640F6B83000F095FA2CB95EA0B5
:101BB00002F07AFB4FF0030907E05DA002F074FB2E
:101BC000204602F049FC0027B9464FF47A7000F035
:101BD00082FA78E05BA002F067FB01F0B8FD0446F2
:101BE0002CB95DA002F060FB4FF0040904E04FF057
:101BF0000009204602F030FC4FF47A7000F06BFAD6
:101C000061E058A002F050FB38E05D480078002009
:101C1000002830D05A4806785AA002F045FB00252B
:101C200009E06048405D05EB850100EB410030387C
:101C3000C5B2681CC5B2B542F3DB681EC5B24FF031
:101C4000000810E0574810F808005749088000BF06
:101C50005548001F008800F040000028F8D008F127
:101C6000010000F0FF08B045ECDB50A002F01CFBC7
:101C7000002043490870002D00DD00E0C5E700BFEB
:101C80002946022001F096FD0446B4B949A002F0AD
:101C90000BFB4D4801F0BEFD4C4800884A4A1288B3
:101CA000811A4BA002F000FB40F2DC5000F013FA66
:101CB0004DA002F0F9FABDE8F0874FF00009204688
:101CC00002F0CAFB00BF00BF4FF47A7000F003FAC5
:101CD000052F03D147A002F0E7FA00E023E700BF99
:101CE00000BFE8E7506C65617365205072657373DF
:101CF0002066696E676572210D0A0000436F72727B
:101D00006563742066696E6765720D0A00000000E5
:101D100054727920616761696E0D0A00436F6D70BE
:101D20006172696E670D0A0053616D65210D0A00CD
:101D30004661696C65642C74727920616761696EB3
:101D4000210D0A006372656174652061206D6F6406
:101D5000656C2E2E2E0D0A00737563636565640D28
:101D60000A000000696E70757420776865726520DE
:101D7000796F752073746F72653A0D0A0000000068
:101D8000140000200D0A7468652061646472657334
:101D90007320776865726520796F752073656E644E
:101DA0003A0D0A004C000020043801400D0A0D0ACB
:101DB00000000000416464207375636365656465B9
:101DC00064EFBC810D0A000028000020FC07002001
:101DD00072656D61696E65642063617061636974C9
:101DE000793A25640D0A00007761697474696E6739
:101DF000EFBC810065786974210D0A0010B522A13D
:101E00002448FEF75BFA08BB00F048FF00F05AFFD9
:101E100000F076FF4FF4FA7000F05DF91E4802F012
:101E20007BFA642000F057F901F00AF908231BA29D
:101E30001C21142001F054FB01F06AFB00201A4918
:101E4000087040F6B83000F046F91CE000F03AFFA8
:101E500000F04CFF00F02CFF01F0F2F8082313A271
:101E60001021062001F03CFB082314A2202116209B
:101E700001F036FB01F04CFB00200B49087040F6E6
:101E8000B83000F028F910BD507261796D6572723A
:101E9000790000004C0000200000B442446F6F72D3
:101EA000204F70656E210000140000205061737394
:101EB000776F7264206572726F722100547279209C
:101EC000616761696E00000000BFFEE770B50546FE
:101ED0000C460026284602F00BF8064626EA0401C6
:101EE000284602F0CFFE70BD00F0805111B10349C9
:101EF000086001E0024948607047000004040240A5
:101F00000000024021B1026842F00102026004E0D8
:101F100002684FF6FE731A400260704701684FF680
:101F2000FE72114001600021016041608160C1606A
:101F30004B49884208D14A490839496841F00F01A4
:101F4000474A083A51608AE045491431884208D12D
:101F500043490839496841F0F001414A083A516063
:101F60007DE03F492831884208D13D490839496818
:101F700041F470613A4A083A516070E038493C31A6
:101F8000884208D136490839496841F47041344AD9
:101F9000083A516063E032495031884208D13049F3
:101FA0000839496841F470212D4A083A516056E0D9
:101FB0002B496431884208D129490839496841F4DC
:101FC0007001274A083A516049E025497831884232
:101FD00008D123490839496841F07061204A083A1C
:101FE00051603CE01F49884206D1011F096841F059
:101FF0000F01021F116032E01A491431884208D1E2
:102000001849091F096841F0F001164A121F1160B2
:1020100025E014492831884208D11249091F09686E
:1020200041F470610F4A121F116018E00D493C31F4
:10203000884208D10B49091F096841F47041094AD7
:10204000121F11600BE007495031884207D1054942
:10205000091F096841F47021024A121F116070477C
:10206000080002400804024001460020002201F05E
:10207000805313B1054B1A6801E0054B1A6802EA58
:1020800001030BB1012000E0002070470004024072
:102090000000024010B50022026847F6F0739A4330
:1020A0000C6A8B6823430C6923434C6923438C6976
:1020B0002343CC6923434C6A23438C6A23431A434A
:1020C0000260CB6843600B6883604B68C36010BDDF
:1020D00041607047704700B5034603E04FF47A70E3
:1020E00000F005F8181EA3F10103F7D100BD00EBC5
:1020F000C001C9004FF0E02251610021916105212A
:10210000116100BF4FF0E021096901F4803100291D
:10211000F8D004214FF0E0221161704701462129D7
:102120003ED2DFE801F011131517191B1D1F2123E3
:1021300025273D3D3D3D292B3D3D3D2D3D3D2F314D
:102140003335373D3D393B0017A02BE018A029E07F
:102150001EA027E024A025E029A023E02FA021E055
:1021600034A01FE039A01DE040A01BE046A019E00C
:102170004CA017E053A000BF58A013E05EA011E0F0
:1021800064A00FE06AA00DE071A00BE075A009E06B
:1021900079A007E07FA005E083A003E089A001E02B
:1021A0008CA000BF00BF70474F4B0D0A000000001D
:1021B0004461746162617365207265636569766507
:1021C000206572726F720D0A000000004E6F20666B
:1021D000696E676572206F6E207468652073656E26
:1021E000736F720D0A0000006C6F6767696E67207D
:1021F000696D616765206661696C7572650D0A00BD
:1022000066696E67657220746F6F20647279206FE3
:1022100072207468696E0D0A0000000066696E67BE
:10222000657220746F6F20776574206F7220646907
:102230006D0D0A0066696E67657220696D6167657C
:10224000206973206D657373790D0A0066696E6786
:10225000657220666561747572657320746F6F2096
:102260006C6974746C650D0A0000000066696E6725
:1022700065727072696E74206D69736D61746368E4
:1022800065640D0A000000004E6F20736561726383
:102290006820666F722066696E6765727072696E1B
:1022A000740D0A00496E7465677261746520666515
:1022B000617475726561206661696C7572650D0A7D
:1022C0000000000061646472657373206578636563
:1022D00065642073636F70650D0A000064656C654A
:1022E00074652074656D706C617465206661696CDD
:1022F0007572650D0A000000636C65616E20666989
:102300006E67657262617365206661696C7572657E
:102310000D0A00004E6F2076616C696420696D6162
:10232000676520696E206275666665720D0A000039
:10233000777269746520616E6420726561642066DD
:102340006C617368206572726F720D0A0000000084
:10235000556E646566696E6564206572726F720D94
:102360000A000000496E76616C69642072656769D5
:10237000737465720D0A000044657461696C7320A2
:10238000696E207265676973746572206572726F19
:10239000720D0A004E6F746520706167652065726A
:1023A000726F720D0A00000046756C6C206F66201B
:1023B00066696E6765727072696E742062616E6BB9
:1023C0000D0A000061646472657373206572726F38
:1023D000720D0A0072657475726E20636F6E6669A5
:1023E000726D6564206E756D206572726F720D0A74
:1023F0000000000038B501F0E8F80446002C6BD16D
:10240000012001F0BFF80446002C4DD16420FFF7F5
:1024100062FE6B464FF496720021012001F032F902
:102420000446002C28D138A001F03EFFBDF8022060
:10243000BDF8001039A001F037FF00F02FFC00F0CC
:1024400041FC00F05DFC4FF4FA70FFF744FE3B489E
:1024500001F062FF6420FFF73EFE00F0F1FD08236B
:1024600037A20021102001F03BF801F051F84FF4A1
:102470007A70FFF730FE46E0204601F0EDFF00F0F5
:1024800021FC00F033FC00F013FC00F0D9FD082320
:102490002EA21021084601F023F801F039F84FF47C
:1024A0007A70FFF718FE2EE0204601F0D5FF00F00D
:1024B00009FC00F01BFC00F0FBFB00F0C1FD082351
:1024C00025A21021084601F00BF801F021F84FF485
:1024D0007A70FFF700FE16E0204601F0BDFF00F025
:1024E000F1FB00F003FC00F0E3FB00F0A9FD082382
:1024F0001DA21021084600F0F3FF01F009F84FF487
:102500007A70FFF7E8FD38BD736561726368207308
:1025100075636365656465640D0A00000D0A4D61AD
:102520007463682049443A256420204D61746368CF
:102530002073636F72653A25640D0A000000B4428F
:10254000446F6F72204F70656E2100004661756C9C
:1025500074204650210000006661696C20746F2071
:1025600063726561746521004661696C20746F2037
:1025700067657421000000002DE9F0410246002546
:102580000026002000230024002791F803C00CF04F
:102590000F0591F803C00CF0100CBCF1000F03D034
:1025A00091F802C04CEA050591F800C0BCF1000F9B
:1025B00031D0146800202BE04FF0010C0CFA00F32E
:1025C000B1F800C00CEA03069E4220D183004FF010
:1025D0000F0C0CFA03F7BC4305FA03FC4CEA0404A5
:1025E00091F803C0BCF1280F06D14FF0010C0CFA92
:1025F00000FCC2F814C00AE091F803C0BCF1480F17
:1026000005D14FF0010C0CFA00FCC2F810C0401CC0
:102610000828D1D31460B1F800C0BCF1FF0F34DD3D
:10262000546800202EE000F1080C4FF0010808FA71
:102630000CF3B1F800C00CEA03069E4221D18300DE
:102640004FF00F0C0CFA03F7BC4305FA03FC4CEAFD
:10265000040491F803C0BCF1280F05D100F1080C67
:1026600008FA0CF8C2F8148091F803C0BCF1480FC6
:1026700007D100F1080C4FF0010808FA0CF8C2F875
:102680001080401C0828CED35460BDE8F0810000C3
:10269000F0B50A46002300240021002500F0004682
:1026A000B6F1004F02D11D4EF16901E01B4E716879
:1026B000C0F3034583B200F44016B6F5401F08D1BD
:1026C00021F07061154E766826F07066134F7E60BB
:1026D00012E000F48016B6F5801F06D1032606FA34
:1026E00005F4A14341F0706106E0460D360103FA9E
:1026F00006F6B14341F0706122B1460D360103FA8E
:1027000006F6314300F00046B6F1004F02D1034E09
:10271000F16101E0014E7160F0BD00000000014078
:102720000246002093680B400BB1012000E000201E
:10273000704741617047016170470AB1016100E073
:102740004161704708B50121042001F047FB1020CA
:102750008DF803000120ADF8000003208DF8020081
:1027600069460A48FFF708FF28208DF80300022079
:10277000ADF8000003208DF8020069460348FFF71A
:10278000FBFE01210148FFF7D4FF08BD000801400E
:1027900000BFFEE77CB50546EF208DF80000012064
:1027A0008DF801001A480068000E8DF802001848E4
:1027B0000068000C8DF8030015480088000A8DF8A9
:1027C0000400134800788DF8050007208DF80600F6
:1027D00000208DF807000F49088012E00120FFF764
:1027E0007AFC0C48008800F4004050B100200949F0
:1027F000088069460848FDF74FFD04460CB12046A5
:102800007CBD681E80B2051EE8D100BFF8E700005D
:1028100024000020180000204002002010B50221F2
:102820001648FFF77DFF78B91420FFF754FC00BF6E
:1028300002211248FFF774FF0028F9D01420FFF797
:102840004AFC01200E4908704FF400610B48FFF765
:1028500067FF80B91420FFF73EFC00BF4FF4006112
:102860000648FFF75DFF0028F8D01420FFF733FC7F
:102870000220034908700248007810BD000C014096
:102880001A00002008B50121082001F0A7FA48200D
:102890008DF8030040F60240ADF8000003208DF8EB
:1028A000020069460148FFF767FE08BD000C0140C1
:1028B0002DE9F04104460D4616461F462A2000F039
:1028C000BDF9A11C88B200F0A9F9B11C88B200F0D2
:1028D000A5F92B2000F0B2F9691C88B200F09EF92E
:1028E000791C88B200F09AF92C2000F0A7F9BDE815
:1028F000F08100002DE9F84306460F4614461D46B8
:10290000DDF82080CDF80080A01BE91B48431FFAAA
:1029100080F9681E83B2601E82B239463046FFF7E6
:10292000C7FF10212048FFF704FF2048008840F42B
:1029300000601E49088001211C4801F027FC4B461D
:102940006A461A490C311A4800F000FA01220221A5
:10295000164801F027FC164800F028FA09E04FF469
:102960000070FFF781FB20B14FF40070FFF7BCFA55
:1029700000E0F4E700BF10210B48FFF7DCFE0B4836
:102980000088C043094908800846008840F4006078
:10299000088008460088C04308800121034801F0F0
:1029A000F5FBBDE8F883000000080140003001405D
:1029B0003000024008B50121042001F00FFA102078
:1029C000ADF800008DF8030003208DF80200694681
:1029D0000F48FFF7D1FD10210D48FFF7ACFE012194
:1029E000082001F0FBF94FF4E040ADF800001020A2
:1029F0008DF8030003208DF8020069460548FFF7B3
:102A0000BBFD4FF4E0410348FFF795FE08BD000011
:102A100000080140000C014010B5FFF7CBFF01F0AA
:102A2000B9FA4FF480517C48FFF783FE3220FFF75C
:102A300052FB4FF480517848FFF77DFE3220FFF7BC
:102A40004AFB4FF480417448FFF775FE3220FFF7D0
:102A500042FB112000F0F2F83220FFF73CFBB120DE
:102A600000F0ECF8052000F0E2F83C2000F0DFF880
:102A70003C2000F0DCF8B22000F0E0F8052000F087
:102A8000D6F83C2000F0D3F83C2000F0D0F8B3207A
:102A900000F0D4F8052000F0CAF83C2000F0C7F898
:102AA0003C2000F0C4F8052000F0C1F83C2000F004
:102AB000BEF83C2000F0BBF8B42000F0BFF80320C3
:102AC00000F0B5F8C02000F0B9F8282000F0AFF809
:102AD000082000F0ACF8042000F0A9F8C12000F0B4
:102AE000ADF8C02000F0A3F8C22000F0A7F80D2038
:102AF00000F09DF8002000F09AF8C32000F09EF846
:102B00008D2000F094F82A2000F091F8C42000F005
:102B100095F88D2000F08BF8EE2000F088F8C520A5
:102B200000F08CF81A2000F082F8362000F086F8C9
:102B3000C02000F07CF8E02000F080F8042000F0D5
:102B400076F8222000F073F8072000F070F80A20D1
:102B500000F06DF82E2000F06AF8302000F067F8E1
:102B6000252000F064F82A2000F061F8282000F009
:102B70005EF8262000F05BF82E2000F058F83A208E
:102B800000F055F8002000F052F8012000F04FF856
:102B9000032000F04CF8132000F049F8E12000F089
:102BA0004DF8042000F043F8162000F040F806200D
:102BB00000F03DF80D2000F03AF82D2000F037F835
:102BC000262000F034F8232000F031F8272000F010
:102BD0002EF8272000F02BF8252000F028F82D20D3
:102BE00000F025F83B2000F022F8002000F01FF84C
:102BF000012000F01CF8042000F019F8132000F068
:102C000016F83A2000F01AF8052000F010F82920F4
:102C100000F014F810BD0000000C014010B504468F
:102C2000201200F01DF8E0B200F01AF810BD10B547
:102C30000446204600F014F810BD000010B504460C
:102C40004FF400510548FFF774FD204600F008F8E6
:102C50004FF400510148FFF76EFD10BD000C01401C
:102C600010B5044610210B48FFF763FD00BF022199
:102C7000094801F0A0FA0028F9D02146064801F0E1
:102C8000A3FA012002F039F810210248FFF753FDA2
:102C900010BD0000000801400030014010B54FF4A5
:102CA00000510248FFF747FD10BD00000010014031
:102CB00010B54FF400510248FFF73BFD10BD000076
:102CC0000010014010B54FF480410248FFF733FD7A
:102CD00010BD00000010014010B54FF480410248C3
:102CE000FFF727FD10BD00000010014010B54FF4A4
:102CF00000410248FFF71FFD10BD00000010014019
:102D000010B54FF400410248FFF713FD10BD00005D
:102D10000010014008B50121102001F05FF81020DB
:102D20008DF803004FF46040ADF8000003208DF8EB
:102D3000020069460448FFF71FFC4FF46041024857
:102D4000FFF7F9FC08BD0000001001402DE9F0413B
:102D500007460D4616461C460121084601F00EF8AE
:102D60003846FFF7DBF80F4804800F4805604660DF
:102D700010200D4988600846C46000200861486141
:102D80004FF4807088618000C861002008624FF4B1
:102D900080504862002088623846FFF77BF9BDE822
:102DA000F081000020000020D007002010B504466C
:102DB00000212046FFF7A6F8044801880448FFF7E1
:102DC00087F901212046FFF79DF810BD2000002063
:102DD0003000024000BF0549098801F04001002988
:102DE000F9D00249091D08807047000000440040E6
:102DF00000BFFEE710B5524840785149097840EAD3
:102E00000124B4F5006F31D006DCB4F5007F22D088
:102E1000B4F5806F40D113E0B4F5884F05D0A4F528
:102E200088400338002837D12BE000F009F9082347
:102E300044A20021042000F053FB00F069FB36E0BF
:102E400000F0FEF8082344A20021042000F048FB13
:102E500000F05EFB2BE000F0F3F8082341A2002114
:102E6000042000F03DFB00F053FB20E000F0E8F808
:102E700008233FA20021042000F032FB00F048FBB1
:102E800015E000F0DDF808233CA20021042000F04A
:102E900027FB00F03DFB0AE000F0D2F808233BA23C
:102EA0000021042000F01CFB00F032FB00BF00BF3B
:102EB000B4F5806F02D0B4F5007F25D1FFF7EEFEA8
:102EC000FFF700FFFFF71CFF4FF4FA70FFF703F95D
:102ED000324801F021FA6420FFF7FDF800F0B0F865
:102EE00008232FA20021102000F0FAFA00F010FBB6
:102EF0004FF47A70FFF7EFF800BF1149522000F04D
:102F000091FE0028F9D01AE0FFF7DCFEFFF7EEFE95
:102F1000FFF7CEFE00F094F8082324A20021184603
:102F200000F0DEFA00F0F4FA4FF47A70FFF7D3F80D
:102F300000BF0349522000F075FE0028F9D010BDF3
:102F40003C0000204D696661726520556C747261A9
:102F50004C696768740D0A004D696661726520539B
:102F6000353000004D6966617265205337300000CE
:102F70004D69666172652050726F58004D696661D7
:102F8000726520444553466972650000556E6B6E4C
:102F90006F776E2043617264000000000000B4424D
:102FA000446F6F72204F70656E2100004661756C32
:102FB00074204361726421007047000070B50021E5
:102FC00000230F22C47804B3154C246804F4E06491
:102FD000C4F5E064210AC1F10403CA40447804FA4C
:102FE00003F184781440214309010E4C0678A15561
:102FF000047804F01F050124AC4005786D11AD0084
:1030000005F1E025C5F8004109E0047804F01F054A
:103010000124AC40044D0678761145F8264070BD79
:103020000CED00E000E400E080E100E00249014333
:10303000024A1160704700000000FA050CED00E044
:1030400000200CE0002106E00022064B03EBC01339
:103050005A544A1CD1B28029F6DB421CD0B208284F
:10306000F0DB7047D00300202DE9F04304460D4605
:1030700016461F467F2C01DDBDE8F0833F2D00DDA5
:10308000FAE7A119802902DDC4F18001CEB2E91965
:10309000402902DDC5F14001CFB2284630E0234689
:1030A00029E04FEAE07C00EB5C7C4FEAEC0CDFF8B7
:1030B0005C8008EBCC1C1CF803C002464FEAE078A9
:1030C00000EB58784FEAE808A0EBC8094FF0010878
:1030D00008FA09F82CEA080C01464FEAE07800EB00
:1030E00058784FEAE808DFF8249009EBC81808F888
:1030F00003C0591CCBB2A1199942D2DC411CC8B201
:10310000E9198142CBDC00BFB6E70000D003002004
:1031100038B5002406E0002500E06D1CB5F57A7F87
:10312000FBD3641CB4F57A7FF5D30121082000F0AD
:1031300055FE14208DF8030003208DF802004FF493
:103140008070ADF8000069460A48FFF715FA4FF4A1
:103150000070ADF8000069460648FFF70DFA01223D
:1031600011020448FFF7E9FA012251020148FFF772
:10317000E4FA38BD000C014070B50546002419E0A2
:1031800080202041284008B1012000E000200246B4
:103190004FF400710E48FFF7D0FA012211020C48DB
:1031A000FFF7CBFA00224FF480710948FFF7C5FA08
:1031B000601CC4B2082CE3DB012211020448FFF7B3
:1031C000BCFA00224FF480710148FFF7B6FA70BDD7
:1031D000000C014010B5012251020A48FFF7ADFA78
:1031E000012211020748FFF7A8FA00224FF40071EC
:1031F0000448FFF7A2FA00224FF480710148FFF75C
:103200009CFA10BD000C014010B500224FF4007173
:103210000648FFF792FA012211020448FFF78DFADF
:10322000012251020148FFF788FA10BD000C01404D
:1032300070B5002406E0002500E06D1CB5F57A7F2E
:10324000FBD3641CB4F57A7FF5D3FFF761FFAE20A2
:1032500000F072F9D52000F06FF9802000F06CF9D1
:10326000A82000F069F93F2000F066F9D32000F0B3
:1032700063F9002000F060F9402000F05DF9A12022
:1032800000F05AF9C82000F057F9DA2000F054F99C
:10329000122000F051F9812000F04EF9CF2000F00B
:1032A0004BF9D92000F048F9F12000F045F9DB2076
:1032B00000F042F9302000F03FF9A42000F03CF982
:1032C000A62000F039F98D2000F036F9142000F026
:1032D00033F9AF2000F030F9FFF7B2FE70BD10B542
:1032E0000246012000E050430B1EA1F10101FAD17A
:1032F00010BD70B505460C4645F0B00000F01CF955
:10330000102141EA141000F017F904F00F0000F04A
:1033100013F970BDF8B506460F4614461D46082D34
:103320000CD1A4F120000E4901EB0010102308225B
:1033300039460090304600F017F80FE0062D0DD109
:10334000A4F1200000EB4000064901EB40000823F7
:10335000062239460090304600F006F8F8BD00001D
:103360002A5700081A5D00082DE9F04707460C4669
:1033700090469946DDF820A07F2F01DDBDE8F0875B
:103380003F2C00DDFAE74B46424621463846FFF720
:103390006BFE002570E0002669E0B8197F2800DD8B
:1033A00067E0E11704EB517105EBE101072900DD4E
:1033B000E4E72046E21704EB527205EBE202344BDD
:1033C00003EBC212BB19D25C2146E31704EB537323
:1033D000DB10A4EBC30305FB086C1AF80CC00CFA55
:1033E00003FC42EA0C02E31704EB537305EBE3031F
:1033F000DFF89CC00CEBC31307EB060C03F80C20A2
:10340000E11704EB517105EBE101491C072900DDCF
:103410002BE02046E21704EB527205EBE202521C4D
:103420001B4B03EBC212BB19D25C2146E31704EB22
:103430005373DB10A4EBC303C3F1080305FB086C53
:103440001AF80CC04CFA03FC42EA0C02E31704EB36
:10345000537305EBE3035B1CDFF834C00CEBC313C1
:1034600007EB060C03F80C2000BF701CC6B24645E3
:1034700093DB00BF681CC5B2A9F10100C11700EBC6
:103480005171012202EBE101A94284DC00BF75E722
:10349000D00300202DE9F0470646894617461D4611
:1034A000DDF82080002417E0281B411E0A20FFF7CA
:1034B00016FFB7FBF0F00A21B0FBF1F201FB12009E
:1034C00000F1300A04FB0861C8B24346524649463F
:1034D000FFF720FF601CC4B2AC42E5DBBDE8F0871B
:1034E0002DE9F0410646884615461F46002409E0AE
:1034F0002A5D04FB0761C8B23B464146FFF70AFF5D
:10350000601CC4B2285D0028F2D1BDE8F081000043
:1035100010B500240BE000212046FFF7EAFE054924
:1035200001EBC410802100F017F8601CC4B2082C15
:10353000F1DB10BDD003002010B50446FFF74AFEB2
:103540007820FFF719FE0020FFF716FE2046FFF750
:1035500013FEFFF759FE10BD70B505460E46FFF786
:1035600039FE7820FFF708FE4020FFF705FE002413
:1035700003E0285DFFF700FE641CB442F9DBFFF7AF
:1035800043FE70BD2DE9F041054600F074FE00F0E9
:1035900049FE012000F069FE042000F074FE0220C4
:1035A00000F07BFE2846FFF715FCEF1D384600F0C3
:1035B00053FE4FF4FA60FFF7EDF806460EB1747A49
:1035C00000E0FF242046BDE8F08170B500F053FE16
:1035D00000F028FE012000F048FE032000F053FE1A
:1035E000012000F05AFE0526304600F035FE4FF46B
:1035F000FA60FFF7CFF805460DB16C7A00E0FF24C2
:10360000204670BD10B5044600F035FE00F00AFEFD
:103610000120FFF7DFFB0020FFF7DCFB0020FFF7B6
:10362000D9FBC820FEF757FD1448008800F400407D
:1036300008B313480078EF281AD1114840780128C0
:1036400016D10F488079072812D10D4880780006DE
:103650000B49C97800EB01400949097900EB0120C9
:10366000074949790844206000200449088010BDBA
:103670000020024908800120F9E70000180000201E
:10368000400200202DE9F04781460D4616461F46B0
:1036900000F0F1FD00F0C6FD012000F0E6FD08207D
:1036A00000F0F1FD1B2000F0F8FD4846FFF792FB0B
:1036B0002812FFF78FFBE8B2FFF78CFB3012FFF701
:1036C00089FBF0B2FFF786FB09F1240000EB25200F
:1036D000E9B2084400EB2620F1B200EB010A5046A3
:1036E00000F0BAFD4FF4FA60FFF754F8044664B1F5
:1036F00094F80980E07AA17A00EB01203880607BA1
:10370000217B00EB0120788001E04FF0FF0840466C
:10371000BDE8F08770B500F0AEFD00F083FD01203C
:1037200000F0A3FD032000F0AEFD032000F0B5FD86
:103730000726304600F090FD4FF4FA60FFF72AF8B4
:1037400005460DB16C7A00E0FF24204670BD70B5CF
:1037500000F091FD00F066FD012000F086FD0320E1
:1037600000F091FD052000F098FD0926304600F09C
:1037700073FD4FF4FA60FFF70DF805460DB16C7A52
:1037800000E0FF24204670BD08B50121042000F0B0
:1037900025FB4020ADF8000028208DF80300032011
:1037A0008DF8020069460248FEF7E6FE08BD0000FB
:1037B000000801402DE9F04106460C4600F05BFD93
:1037C00000F030FD012000F050FD062000F05BFD10
:1037D000062000F062FD3046FFF7FCFA2012FFF7EA
:1037E000F9FAE0B2FFF7F6FA06F10D0000EB24203B
:1037F000E1B200EB0108404600F02EFD4FF4FA6004
:10380000FEF7C8FF07460FB17D7A00E0FF25284686
:10381000BDE8F0812DE9F041064600F02CFD00F0F6
:1038200001FD012000F021FD032000F02CFD1D20F2
:1038300000F033FD2127384600F00EFD4FF4FA600A
:10384000FEF7A8FF044634B1657AE07AA17A00EB6E
:103850000120308000E0FF253DB9E07AA27A00EB3C
:10386000022107A000F020FD07E02846FEF756FCE5
:103870008046414608A000F017FD2846BDE8F081CB
:103880000D0A456666656374697665206E756D73AD
:103890003D25640D0A0000000D0A2573000000009C
:1038A00000B589B00121022000F078FA012108203A
:1038B00000F094FA18208DF823000120ADF82000C4
:1038C00003208DF8220008A91A48FEF755FE1A4871
:1038D00000F0B4FE0020ADF81A00ADF8160044F672
:1038E0001F60ADF818004720ADF8140000208DF8D7
:1038F0001C0005A9104800F00FFF01A800F0FDFE14
:103900006020ADF804000020ADF80C000120ADF8F7
:1039100006000020ADF80A0001A9074800F094FE57
:103920000821054800F0E0FE0121034800F060FE98
:1039300009B000BD000C01400004004010B5044671
:103940002146024800F0E3FE10BD000000040040E4
:10395000F8B50746002500240026FFF771FB3CE080
:103960000AE0FEF75BFF494908700A20FEF7B3FB47
:103970004648007800B100E0F3E700BF4348007814
:10398000E0B1DDB9FFF75CFB0125601CC4B2082380
:103990003FA200211C20FFF7A3FD0620102101EB10
:1039A00004110090C8B2012338490A782021FFF79A
:1039B00071FDFFF7ADFD6420FEF78DFB012D08D1F1
:1039C00032480178601E354A1154002500202F49E5
:1039D0000870042C01DB032500E0C1E700BF50E0C4
:1039E00000200AE02D49095C3A5C914201D1761C25
:1039F00002E04FF0FF3602E0401C0428F2DB00BF7B
:103A0000042E21D1FFF74AF9FFF75CF9FFF778F9A7
:103A10004FF4FA70FEF75FFB214800F07DFC642054
:103A2000FEF759FBFFF70CFB08231EA21C211420F4
:103A3000FFF756FDFFF76CFD40F6B830FEF74BFB85
:103A40000020124908701EE0701CD0B9FFF73AF947
:103A5000FFF74CF9FFF72CF9FFF7F2FA082314A24D
:103A600010210620FFF73CFD082315A22021162077
:103A7000FFF736FDFFF74CFD40F6B830FEF72BFBA5
:103A800001E0032DACD000BFF8BD00001A000020FB
:103A900050415353574F52443A0000001B0000203E
:103AA0000000B442446F6F72204F70656E210000B9
:103AB00050617373776F7264206572726F72210048
:103AC00054727920616761696E00000010B50321AE
:103AD0001420FEF7FBF910BD10B5142000F008FA11
:103AE000044604F0030018B90321142000F032FC4E
:103AF00010BD2DE9FE4F0646884691469A46DDF8F0
:103B000030B0022002900020019000900C2E06D0D0
:103B10000E2E09D1122001901020009005E0772090
:103B200001903020009000E000BF00BF019840F0FD
:103B30008001022001F0A6F880210420FEF7C6F9DA
:103B40000021012001F09EF880210A2000F002FCF3
:103B5000002505E018F80510092001F093F86D1C08
:103B60004D45F7D33146012001F08CF80C2E03D1DE
:103B700080210D2000F0EEFB4FF4487500BF0420BB
:103B800000F0B6F904466D1E35B104F0010018B915
:103B9000009820400028F2D080210D20FEF796F9F1
:103BA00095B3062000F0A4F900F01B0068BB0020CC
:103BB00002900198204000F0010008B1012002901D
:103BC0000C2E24D10A2000F093F904460C2000F0BA
:103BD0008FF900F007072FB1601E07EBC000CBF88C
:103BE000000002E0E000CBF8000004B90124122C30
:103BF00000DD1224002505E0092000F079F90AF81B
:103C000005006D1CA542F7D301E00220029080213F
:103C10000C2000F09FFB0021012001F033F80298F6
:103C2000BDE8FE8F70B588B005460C4608210846F1
:103C3000FEF74CF907210D2001F024F80321142090
:103C400000F088FB8DF8085007A802AB012202A9FA
:103C500000900C20FFF74DFF06464EB9079810283C
:103C600006D19DF8080020709DF80900607000E002
:103C70000226304608B070BD10B510211E48FEF770
:103C80005AFD0A20FEF733FA10211B48FEF751FDBA
:103C90003C20FEF720FA10211748FEF74CFD4FF4A8
:103CA000FA70FEF724FA0F21012000F0EBFF02204A
:103CB000FEF711FA3D21112000F0E4FF1E212D2016
:103CC00000F0E0FF00212C2000F0DCFF8D212A20F5
:103CD00000F0D8FF3E212B2000F0D4FF402115201A
:103CE00000F0D0FF80213320FEF7F0F840211520AE
:103CF00000F0C8FF002010BD000C014010B5FFF718
:103D0000BBFFFFF7E3FE6420FEF7E5F9FFF7E4FEF3
:103D100010BD704708B50121082000F05FF80121AF
:103D2000084600F05BF801211248FEF7B1FC1820AC
:103D3000ADF8000010208DF8030003208DF802007C
:103D400069460D48FEF718FC4FF48050ADF80000AE
:103D500010208DF8030003208DF802006946064804
:103D6000FEF70AFC4FF480510348FEF7E4FC00F034
:103D700057F908BD00023000000C014029B1064A85
:103D800052690243044B5A6104E0034A5269824378
:103D9000014B5A61704700000010024029B1064AE9
:103DA000D2690243044BDA6104E0034AD2698243D8
:103DB000014BDA61704700000010024029B1064A49
:103DC00012690243044B1A6104E0034A12698243F8
:103DD000014B1A61704700000010024029B1064AE9
:103DE00092690243044B9A6104E0034A9269824358
:103DF000014B9A61704700000010024029B1064A49
:103E0000D2680243044BDA6004E0034AD26882437A
:103E1000014BDA60704700000010024030B500210D
:103E20000022002400232D4D6D6805F00C0121B106
:103E3000042905D0082923D105E0294D056022E099
:103E4000274D05601FE0254D6D6805F47012234D68
:103E50006D6805F48034022505EB92421CB9214DB2
:103E6000554305600BE01D4D6D6805F400351DB12F
:103E70001C4D5543056002E0194D5543056002E0B5
:103E8000174D056000BF00BF144D6D6805F0F001CF
:103E90000909154D6B5C0568DD4045600F4D6D6887
:103EA00005F4E061090A104D6B5C4568DD408560F2
:103EB0000A4D6D6805F46051C90A0B4D6B5C45688D
:103EC000DD40C560054D6D6805F44041890B074D27
:103ED0006B5CC568B5FBF3F5056130BD00100240B1
:103EE00000127A0000093D000000002010000020B0
:103EF0001CB50446002000907E2000EA440040F0FB
:103F0000800001900120FEF7E6F84FF48051094847
:103F1000FEF70FFC012101A800F000F9012168461D
:103F200000F0C6F84FF480510248FEF704FC9DF8FB
:103F300000001CBD000C014010B5002402211448F3
:103F4000FEF7EEFB68B91420FEF7C5F800BF0221AA
:103F50000F48FEF7E5FB0028F9D01420FEF7BBF868
:103F600001244FF400610A48FEF7DAFB70B914200F
:103F7000FEF7B1F800BF4FF400610548FEF7D0FB33
:103F80000028F8D01420FEF7A6F80224204610BD21
:103F9000000C014000B587B001210803FFF71EFFA8
:103FA00001210420FFF71AFFA020ADF8180003201C
:103FB0008DF81A0018208DF81B0006A91648FEF788
:103FC000DBFAA0211448FEF7B6FB4FF44040ADF8F1
:103FD00004004FF48270ADF806000020ADF8080030
:103FE0000220ADF80A000120ADF80C004002ADF847
:103FF0000E000820ADF810000020ADF812000720D8
:10400000ADF8140001A9054800F0E0F801210348CB
:1040100000F0BCF807B000BD0008014000300140CE
:1040200000B587B001218803FFF7B8FE0121082001
:10403000FFF7D4FE4FF46040ADF8180003208DF870
:104040001A0018208DF81B0006A91748FEF794FAED
:104050004FF460411448FEF76EFB0020ADF80400F9
:104060004FF48270ADF806000020ADF80800ADF8FE
:104070000A00ADF80C00ADF80E001020ADF81000ED
:104080000020ADF812000720ADF8140001A9074880
:1040900000F09CF80121054800F0B6F80121034822
:1040A00000F074F807B000BD000C0140003800407B
:1040B00010B502460B46002127E0FF20164C208059
:1040C00007E0491C44F62060814202DD4FF0FF30DA
:1040D00010BD1148001F008800F002000028F0D039
:1040E000002107E0491C44F62060814202DD4FF0C8
:1040F000FF30EDE70848001F008800F001000028AD
:10410000F0D00548008802F8010B181EA3F1010346
:10411000D3D100BFDCE700000C38004010B50246E8
:104120000B4600212AE007E0491C44F6206081424A
:1041300002DD4FF0FF3010BD1348008800F0020090
:104140000028F1D012F8010B0F4C241D2080002113
:104150000BE00D4800880C4C2080491C44F6206080
:10416000814202DD4FF0FF30E5E70748008800F0AC
:1041700001000028EDD00448001D0088181EA3F19E
:104180000103D0D100BFD6E70838004021B1028832
:1041900042F04002028004E002884FF6BF731A40EA
:1041A000028070471AB183880B43838002E08388C2
:1041B0008B43838070470246002013890B400BB16C
:1041C000012000E0002070478181704710B5002277
:1041D000028802F441520B884C8823438C88234385
:1041E000CC8823430C8923434C8923438C89234364
:1041F000CC8923431A430280838B4FF2FF74234000
:1042000083830B8A038210BD21B1828842F00402AD
:10421000828004E082884FF6FB731A4082807047E8
:104220007047000010B50B490968080EFEF7D2FD73
:1042300008480068C0F30740FEF7CCFD0548008839
:10424000C0F30720FEF7C6FD02490878FEF7C2FD5D
:1042500010BD00002400002010B504462012FEF717
:10426000B9FDE0B2FEF7B6FD10BD10B5044620461C
:10427000FEF7B0FD10BD10B5EF20FEF7ABFD01203D
:10428000FEF7A8FD10BD10B50446C4F30720FEF7E5
:10429000A1FDE0B2FEF79EFD10BD10B5044620461C
:1042A000FEF798FD10BD00000FB400B59BB01DA82F
:1042B000019002A8019A1C99FBF7DCFF00200190F5
:1042C00002A9034800F015F81BB05DF814FB0000CC
:1042D0000038014070B504460D462946204600F0DE
:1042E0006EFC00BF8021204600F09CFB0028F9D026
:1042F00070BD70B506460C46002505E0615D304690
:10430000FFF7E8FF681CC5B2605D0028F6D170BDFC
:1043100010B5FFF7C5FA10BD2DE9F04104460A4972
:10432000204600F0DBFF8046084901F0B9F8074657
:10433000074900F071FF064601F092F885B2284661
:10434000FFF7FCFABDE8F081000034430000FA44B6
:104350000000FA4370B505460C4600262846FFF7D4
:10436000C7FD064646EA0401284600F08BFC70BDF6
:1043700010B500F001F810BD0CB5002001900090C0
:104380003348006840F480303149086000BF30484D
:10439000006800F4003000900198401C01900098E3
:1043A00018B90198B0F5A06FF1D12948006800F460
:1043B000003010B10120009001E000200090009832
:1043C000012843D12348006840F0100021490860CB
:1043D0000846006820F0030008600846006840F0C6
:1043E000020008601A484068194948600846406859
:1043F00048600846406840F480604860084640686D
:1044000020F47C1048600846406840F4E81048609A
:104410000846006840F08070086000BF0C480068E3
:1044200000F000700028F9D00948406820F003002F
:10443000074948600846406840F00200486000BFF5
:104440000348406800F00C000828F9D10CBD0000BA
:10445000001002400020024070B504462046FDF7DF
:104460005DFE0546294604A0FFF71EFF4FF47A7053
:10447000FDF731FE70BD000025730000704700009D
:1044800010B51348006840F0010011490860084663
:104490004068104908400E494860084600680E49C7
:1044A00008400B4908600846006820F48020086036
:1044B0000846406820F4FE0048604FF41F00886002
:1044C000FFF756FF4FF000600449086010BD000080
:1044D000001002400000FFF8FFFFF6FE08ED00E0CC
:1044E00010B50121880700F08FF8012808D1054890
:1044F0000088401C034908800121880700F075F8F6
:1045000010BD00002E00002010B50121094800F068
:104510007BF868B10848008840F4004006490880EC
:104520000121044800F061F80021024800F060F821
:1045300010BD0000000400401800002010B501214B
:10454000094800F061F868B10848008840F400406C
:10455000064908800121044800F047F8002102487C
:1045600000F046F810BD00000008004018000020D0
:104570007FB505460C4601210420FFF70FFC1848C3
:1045800000F05CF8ADF80850ADF804400020ADF83C
:104590000A00ADF8060001A9114800F0BDF801219C
:1045A0000F4800F01FF8012211460D4800F03DF8B9
:1045B0004FF4A060FEF73AFD1E208DF800000020A9
:1045C0008DF8010002208DF8020001208DF8030013
:1045D0006846FEF7F3FC0121014800F009F87FBDB1
:1045E00000080040CA4302827047CA4302827047F3
:1045F00021B1028842F00102028004E002884FF6F5
:10460000FE731A400280704730B502460020002336
:104610000024158A05EA0103958905EA010413B10E
:104620000CB1012000E0002030BD1AB183890B439A
:10463000838102E083898B438381704701894FF630
:10464000F87211400181704770B5002400220023E8
:10465000058C4FF6FF6635400584028C8388848B79
:104660004FF68F752C404FF6FC752C400D882C436F
:104670004FF6FF552A400D894FF6FF7606EA0525CD
:104680002A434D8806EA05252A43154DA84202D043
:10469000144DA8421DD14FF2FF752A404D894FF6A7
:1046A000FF7606EA05252A434FF6FF352A408D8816
:1046B00006EA05252A434EF6FF752B404DF6FF7599
:1046C0002B408D8906EA05152B43CD8906EA051591
:1046D0002B4383808483CD888587028470BD00004E
:1046E000002C0140003401400A460021818B4FF626
:1046F000F773194011438183704700210180418085
:104700008180C180018141818181C1817047818720
:104710007047818470470000002202881D4B984238
:104720000ED01D4B98420BD0B0F1804F08D01B4BE0
:10473000984205D01A4B984202D01A4B984204D1A5
:104740004FF68F731A404B881A43174B984207D085
:10475000164B984204D04FF6FF431A40CB881A43B9
:1047600002808B8883850B8803850A4B98420BD087
:10477000094B984208D00E4B984205D00D4B9842F9
:1047800002D00D4B984201D10B7A0386012383821C
:1047900070470000002C014000340140000400403C
:1047A00000080040000C00400010004000140040D1
:1047B0000040014000440140004801401FB5012174
:1047C0000846FFF7EBFA4FF08040FFF737FF002075
:1047D000ADF80A00ADF8060041F61F40ADF808003C
:1047E0000020ADF804008DF80C0001A94FF08040C6
:1047F000FFF792FF01218807FFF7F4FE012211461F
:104800009007FFF712FF4FF4A060FEF70FFC1C208B
:104810008DF8000001208DF8030002208DF80100C2
:1048200001208DF802006846FEF7C8FB01218807C9
:10483000FFF7DEFE0020014908801FBD2E0000208A
:1048400010B540F22551214800F0F9F801283CD17B
:104850001E4800F0AFF9C4B21D48007858B93A2C90
:104860002DD11C48007850BB012019490870002048
:104870001949087023E01648007801280FD12E2C22
:1048800003D102201249087019E01448124909782E
:10489000445411480078401C0F4908700FE00C4840
:1048A000007802280BD10A2C09D100200849087091
:1048B0000A49094A1278885401200649087040F2D2
:1048C0002551024800F044F800BF10BD00380140F7
:1048D0001500002014000020160000204C000020CD
:1048E00010B540F22551164800F0A9F800B314485D
:1048F00000F060F9C4B21348008800F40040B8B971
:1049000010480088B0F5C87F13DA00210E48FFF781
:1049100000FF0C48008818B901210B48FFF768FE1A
:10492000084801880088401C064A10800748445403
:1049300005E00448008840F400400249088010BDAA
:104940000044004018000020000800404002002001
:1049500010B50022002340F66A14A14200D100BF26
:104960000A1201249440A3B2DC43048010BD21B19B
:10497000828942F40052828104E082894DF6FF73FD
:104980001A4082817047000010B5044620488442D6
:1049900009D101218803FFF731FA00214FF480404B
:1049A000FFF72CFA32E01B48844209D10121480468
:1049B000FFF704FA00214FF40030FFF7FFF925E07C
:1049C0001548844209D101218804FFF7F7F9002135
:1049D0004FF48020FFF7F2F918E01048844209D123
:1049E0000121C804FFF7EAF900214FF40020FFF786
:1049F000E5F90BE00A48844208D101210805FFF7D8
:104A0000DDF900214FF48010FFF7D8F910BD000048
:104A1000003801400044004000480040004C004085
:104A20000050004002460020B1F5007F00D100BFD9
:104A300013880B400BB1012000E00020704770B5D7
:104A40000246002400230025002040F66A16B142E9
:104A500000D100BFC1F3421501F01F03012606FA81
:104A600003F3012D02D19689334006E0022D02D1D5
:104A7000168A334001E0968A33400C12012606FA6A
:104A800004F41688344013B10CB1012000E000207A
:104A900070BDF0B50346002400260025002040F636
:104AA0006A17B94200D100BF1846C1F3421401F0A1
:104AB0001F06012707FA06F5012C01D10C3004E08E
:104AC000022C01D1103000E014301AB107682F43D6
:104AD000076002E00768AF430760F0BD2DE9F047CB
:104AE00086B005460E460024A24600BFA146002718
:104AF000B08900B100BF2F462C8A4CF6FF700440ED
:104B0000F08804432C82AC894EF6F3100440B08840
:104B100031890843718908430443AC81AC8A4FF65C
:104B2000FF400440B0890443AC8201A8FFF776F946
:104B30001F48874202D1DDF810A001E0DDF80CA08B
:104B4000A88900F4004040B10AEBCA0000EB0A104B
:104B500031684900B0FBF1F807E00AEBCA0000EB4E
:104B60000A1031688900B0FBF1F86420B8FBF0F05E
:104B700004012009642101FB1089A88900F4004088
:104B800040B1322000EBC900B0FBF1F000F00700AB
:104B9000044308E0322000EB09106421B0FBF1F07F
:104BA00000F00F0004432C8106B0BDE8F087000040
:104BB0000038014001468888C0F308007047C1F3FF
:104BC000080282807047000000B587B00121880389
:104BD000FFF704F901210420FFF700F918208DF8F0
:104BE0001B004FF40070ADF8180003208DF81A0078
:104BF00006A92148FDF7C0FC48208DF81B004FF4A2
:104C00008060ADF8180003208DF81A0006A91A4834
:104C1000FDF7B2FC4FF4E13002900020ADF8140033
:104C20000C20ADF812000020ADF81000ADF80E0019
:104C3000ADF80C0002A91148FFF750FF012240F225
:104C400025510E48FFF725FF4FF4A060FEF7EEF95F
:104C500025208DF8040001208DF807008DF805004F
:104C60008DF8060001A8FEF7A9F901210348FFF716
:104C70007EFE07B000BD0000000801400038014082
:104C800000BFFEE7F8B504460D46002000907E20E8
:104C900000EA44068DF800608DF801500120FDF710
:104CA0001AFA4FF480510648FDF743FD0221684689
:104CB000FFF734FA4FF480510148FDF73CFDF8BD91
:104CC000000C0140490050EAC12018BF04204A0DE1
:104CD00018BF40F0010040F2FF72B2EB515F08BF15
:104CE00040F00200012808BF0520704730380A282C
:104CF00001D2012070470020704700BF011EA0F1C3
:104D00000100FBD17047000008B5FEF791FAFEF7ED
:104D100001F8FDF7B7FDFFF757FF4FF4614000F0D2
:104D2000E9F941F61F4142F20F70FFF721FCFFF74E
:104D300045FDFDF707FDFDF76FFE4FF6FF70A02361
:104D40008022002100900846FDF7D4FDFEF7E2FF27
:104D500004209349087000204870FEF7CFFFFFF74A
:104D6000D7FAFDF7B9FF6420FDF7B5F98D48006863
:104D7000FFF7D2FA6420FDF7AEF9FEF761F9FEF70E
:104D8000C7FBFEF701FD88A0FFF78EFA8EA0FFF7A4
:104D90008BFA92A0FFF788FA17E0FEF751F9082383
:104DA00095A210211920FEF79BFBFEF7B1FB95A001
:104DB000FFF77AFA4FF47A70FDF78DF999A0FFF7B3
:104DC00073FA4FF47A70FDF786F99D48FEF71AFCE6
:104DD0000028E2D1FEF734F908239AA21021192005
:104DE000FEF77EFBFEF794FB4FF47A70FDF773F944
:104DF00097A0FFF759FAD1E0FFF79EF8994908709C
:104E000028B3FEF71DF9082397A200211820FEF70A
:104E100067FB082397A220211020FEF761FBFEF715
:104E200077FB0020974908704FF47A70FDF753F92B
:104E30000BE0002093490870012093490870FDF7AA
:104E4000EDFC9049087000B100E0F2E75CE08F48AB
:104E50000078012817D1FEF7F3F808238CA210215F
:104E60000E20FEF73DFB08238DA220211420FEF723
:104E700037FBFEF74DFB4FF47A70FDF72CF902205B
:104E80008149087040E046495220FEF7CBFEB8B990
:104E9000FEF7D6F8082385A210211820FEF720FB84
:104EA00008237FA220211420FEF71AFBFEF730FB17
:104EB0004FF47A70FDF70FF903207349087023E06F
:104EC0007C48006868B1FEF7BBF808237AA210217D
:104ED0000E20FEF705FBFEF71BFB04206A49087055
:104EE00012E04FF480617748FDF71AFC60B9FEF7D5
:104EF000A7F8082374A210210E20FEF7F1FAFEF79E
:104F000007FB0520604908705F480078062823D217
:104F1000DFE800F022030A10161C6F48FEF718FDA8
:104F200000205949087038E0FCF768FF0020564916
:104F3000087032E0FDF75EFF0020534908702CE056
:104F4000FDF758FA00205049087026E0FCF7E6FD0E
:104F500000204D49087020E0FDF7A0FEFDF7BCFEE3
:104F6000FDF7C4FE0F480068FFF7D6F9FEF768F8B2
:104F700008235AA219462420FEF7B2FA082359A2A0
:104F800018213720FEF7ACFA082357A228211E204B
:104F9000FEF7A6FAFEF7BCFA00BF00BF2CE7000040
:104FA0003C00002034000020415336303820466950
:104FB0006E6765727072696E74206D6F64756C6572
:104FC00020746573740D0A00417574686F723A201D
:104FD000507261796D657272790D0A00436F6E6E61
:104FE00065637420776974682041533630382E2EFB
:104FF0002E2E2E0D0A000000496E6974696E672E10
:105000002E2E000043616E6E6F7420636F6E6E65AE
:1050100063742077697468204153363038210D0A53
:105020000000000054727920746F20636F6E6E650B
:10503000637420616761696E2E2E2E2E0D0A0000AA
:1050400024000020496E6974696E67204F4B21006F
:10505000436F6E6E6563742053756363657373216C
:105060000D0A0000310000204B65657020496E700C
:10507000757400003E3E556E4C6F636B696E673C05
:105080003C000000300000204900002014000020F7
:105090003E3E426C7565546F6F74683C3C00000086
:1050A0005665726966696E672E2E2E003E3E4E462C
:1050B000433C3C00180121423E3E46696E676572E2
:1050C0003C3C0000000C01403E3E41646446696E79
:1050D0006765723C3C0000003800002057656C6337
:1050E0006F6D6500546F0000576F6E6465726C6180
:1050F0006E64000010B586B0044601210420FEF75E
:105100006DFE01214804FEF749FE2948FFF73CFCEB
:105110000420ADF8100003208DF8120018208DF83F
:10512000130004A92348FDF727FA0820ADF8100062
:1051300004208DF8130004A91E48FDF71DFA009401
:105140000020ADF80400ADF80600ADF80800ADF899
:105150000C000C20ADF80A0069461548FFF7BEFCAC
:1051600001211348FFF703FC012240F225511048AA
:10517000FFF78FFC26208DF8140001208DF8150014
:1051800000208DF8160001208DF8170005A8FDF706
:1051900015FF42F2CF0140F2E730FFF7E9F90020B6
:1051A0000549088000210548FFF722FA06B010BD26
:1051B00000440040000801401800002000080040A2
:1051C00010B500290AD00878002807D0054878448F
:1051D000FBF774F8002801D0002010BD0248784485
:1051E00010BD0000BE0F0000B60F000010B5002972
:1051F0000AD00878002807D005487844FBF75EF805
:10520000002801D0002010BD0248784410BD0000E5
:10521000AE0F0000A60F000090EA010F48BF81F01A
:10522000004100F11082421A3CBF801A89184FEAEF
:10523000D0524FF07F4C1CEA410FA2EBD15318BF64
:105240009CEA026F00F03B804FF0004C4CEA0020DB
:105250004CEA012121FA03FC10EB0C0C1ED202F1E6
:10526000FF325FEA1C2040EBC25038BF70471CF091
:105270007F0F4FEA400C18BFBCF17F4F38BF70471B
:10528000C3F12003994008BF20F00100BCF17F4F1B
:1052900038BF7047A0F1C04000F0C9B94FEA3C00E8
:1052A000000A40EBC25028BF1CF0FF0F4FEA400C31
:1052B000E6D018BFBCF17F4F38BF7047EAE79CEAE1
:1052C000026F05D010EA5C0F08BF00F00040704785
:1052D00010B500F066F900BF64FBBE3E4FF47F0CD2
:1052E0001CEAD0121EBF1CEAD11392EA0C0F93EAFB
:1052F0000C0F00F0858090EA010F48BF42F48072E5
:1053000040F4000C41F400002CF07F4120F07F407D
:1053100000B58142A2EB03020FF2081CACEB504E29
:10532000C0F100009EF800E04FEA4E0E00FB0EFCBC
:1053300038BF49004FEA2C1C02F5FA020CFB0EF3B1
:105340004FEACE1E4FEA112C4FEAC1210EEB635EED
:1053500042EB22420EFB0CFC4FEA1C5300FB0311F4
:105360004FEA112C4FEA01310EFB0CFC4FEADC4CEA
:1053700000FB0C11C14228BF09184CEB03335DF848
:1053800004EB10EB410143EBC250B2F57C0F38BF88
:10539000704729D512F0F00F1CBF00F1C04000F09B
:1053A00000407047008182838485868788898B8C42
:1053B0008D8E8F919293959697999A9C9D9FA0A27E
:1053C000A3A5A7A8AAACAEB0B2B3B5B7B9BCBEC0CE
:1053D000C2C5C7C9CCCED1D4D7D9DCDFE2E6E9EC6F
:1053E000F0F3F7FAFE0000004FEA400C0CF1807C6D
:1053F000BCF17E4F28BF7047B0F1C04000F017B934
:1054000090EA010F0CEAD11348BF42F48072624562
:1054100038BF634507D213F47F0F16D080EA01002E
:1054200000F00040704710B500F0BBF8097EFC3E6C
:1054300000F005B880EA010000F00040704780EA03
:10544000010000F0004000F0F2B812F47F0F04BF3A
:105450000248704780EA010000F0E9B80000C07F10
:10546000C10DD1F19E0206DB4FEA002343F0004359
:1054700023FA02F07047004207D54FEA4001B1F12C
:10548000FE4F02D24FF00000704710B500F089F8CF
:1054900049922480002070476FEA20007047000086
:1054A0004FF47F0C1CEAD0121EBF1CEAD11392EA03
:1054B0000C0F93EA0C0F00F0478090EA010F48BFF1
:1054C00042F480724FF0004C4CEA00204CEA01217B
:1054D00002EB0302A0FB0113A2F50002002918BF92
:1054E00043F001035B0028BF4FEA330342EB224243
:1054F0005FEA132C4CEBC2502EBFBCEB436FB2F5EE
:105500007C0F70474FEA036CBCF1004F08BF20F0DE
:105510000100B2F57C0F38BF70470BD582F0FF0257
:1055200012F5803FC8BF704700F1C040D8BF00F0FF
:105530000040704700F5000C5FEA4C0C48BF704714
:10554000B0F1C04000F073B890EA010F0CEAD1133B
:1055500048BF42F48072624538BF634504D280EA96
:10556000010000F00040704710B500F01AF800BFCD
:105570008900013E00F007B800F009B85FEA410C6D
:105580005FEA1C6C08D080EA010000F050B85FEAC6
:10559000400C5FEA1C6CF6D14FF00040A0F5800093
:1055A00070470EF1020E2EF0030E5EF8044B2442FB
:1055B00004D44FEA4102B2F17F4F11D84FEA4003C1
:1055C000B3F17F4F0CD80ED14FEAD07CB2F17F4FB0
:1055D0000CEB4C0C0CF1020C08BF4CEBD17C04E042
:1055E0004FF0080C01E04FEAD17C0CEB4C0324FA9D
:1055F00003F404F00704B4F1040C06D20EEB840C9F
:10560000BDE810404CF0010C6047DFE80CF00708E3
:1056100002024FF00040A0F5800010BD0846420095
:1056200018BFD2F1807288BF00F0004010BDFF218A
:1056300041EAD050C005704790EA010F48BF81F0A1
:1056400000413FF5F0AD421A04D882F00042A0EBD1
:10565000020011444FEAD0524FF07F4C1CEA410F38
:10566000A2EBD15318BF9CEA026F4AD04FF0004C16
:105670004CEA00204CEA012121FA03FCB0EB0C0CAF
:105680000FD412F0FE0F36D05FEA4C001DD5001289
:1056900040EBC25038BF70471CF03F0F18BF704737
:1056A0000BE0A2F101025FEA1C2040EBC25038BFC0
:1056B00070471CF07F0F18BF7047C3F1200399405B
:1056C00014BF401E20F00100704780084FEA1223EB
:1056D00008BF7047B0FA80FCA2EB0C02CCF1280C9A
:1056E00060FA0CF093EA122F04BF00EBC25070472F
:1056F0004FEAC3707047130A5FEADC1008BF7047B7
:10570000F6E79CEA026F04D010EA5C0F08BF0020A5
:10571000704710B5FFF745FF40DFF63E81F00040CF
:105720007047FBF738BAFBF76DBB000000000000C4
:1057300000000000000000000000000000F8000071
:105740000000000000333000000000160E00160EAE
:105750000000000000000000000040C07840C07859
:105760004000043F04043F040400007088FC08303B
:105770000000001820FF211E0000F008F000E018D3
:10578000000000211C031E211E0000F0088870008C
:1057900000001E21232419272110000000160E00EE
:1057A00000000000000000000000000000E01804FD
:1057B0000200000000071820400000020418E0006A
:1057C00000000040201807000000404080F08040AA
:1057D00040000202010F01020200000000F0000080
:1057E00000000101011F0101010000000000000094
:1057F000000000B070000000000000000000000089
:105800000000000101010101010100000000000091
:105810000000003030000000000000000000806048
:105820001804006018060100000000E010080810CD
:10583000E000000F102020100F00001010F80000F2
:1058400000000020203F2020000000700808088889
:105850007000003028242221300000300888884859
:1058600030000018202020110E000000C02010F889
:10587000000000070424243F240000F8088888085A
:1058800008000019212020110E0000E0108888185F
:105890000000000F112020110E0000380808C83841
:1058A00008000000003F0000000000708808088821
:1058B0007000001C222121221C0000E010080810AA
:1058C000E0000000312222110F00000000C0C000E3
:1058D00000000000003030000000000000C0C000E8
:1058E0000000000080B07000000000008040201028
:1058F00008000001020408102000404040404040E1
:105900004000040404040404040000081020408043
:105910000000002010080402010000704808080878
:10592000F0000000003036010000C030C828E81048
:10593000E0000718272423140B000000C038E00003
:105940000000203C23020227382008F8888888704D
:105950000000203F202020110E00C0300808080859
:105960003800071820202010080008F80808081040
:10597000E000203F202020100F0008F88888E80869
:105980001000203F20202320180008F88888E8080D
:105990001000203F200003000000C0300808083835
:1059A000000007182020221E020008F80800000846
:1059B000F808203F210101213F20000808F80808CD
:1059C00000000020203F2020000000000808F80808
:1059D0000800C08080807F00000008F888C0281878
:1059E0000800203F20012638200008F808000000A9
:1059F0000000203F20202020300008F8F800F8F8B0
:105A00000800203F003F003F200008F830C0000899
:105A1000F808203F200007183F00E0100808081091
:105A2000E0000F10202020100F0008F808080808D8
:105A3000F000203F210101010000E01008080810DB
:105A4000E0000F18242438504F0008F88888888810
:105A50007000203F2000030C3020007088080808E8
:105A600038000038202121221C00180808F80808F6
:105A700018000000203F2000000008F8080000087F
:105A8000F808001F202020201F000878880000C888
:105A90003808000007380E010000F80800F8000878
:105AA000F800033C0700073C030008186880806882
:105AB000180820302C03032C30200838C800C838C0
:105AC00008000000203F2000000010080808C83827
:105AD00008002038262120201800000000FE0202C5
